:070D34000524E7E7E7E7E70C
:060D6300E4F593F5942273
:10097D007F0E120B85E4FF120C6AE4FF120BE4E408
:10098D00FF120B95E4FF120BA57F03120BF37F01F2
:04099D00120BC52252
:100782008E178F18C3E518940AE51794005014E4E5
:10079200FCFDFBFA7901F8C31203F75006751780C6
:1007A200751800E4FF120CB17F01120CB1E5182498
:0B07B200FFFFE51734FFFE120B3022A2
:10000300D2EA7FFF1206A2E4FDFF1205CCE4FF1241
:100013000A237F32120AF57F021208537F03120963
:10002300C57F021208237B007A0079247F0612071A
:10003300447DDC7C05E4FF1209A17F01120A41D251
:04004300B9D2AF225D
:1007F300E4FF120CB17F01120C5E7F03120C027F27
:10080300007E801207827F02120B75E4FF120B65D4
:100813007F01120CB1E5AD20E7FBE5AD30E7FB222C
:10063E00E4900049F0900020741EF0900040E0908D
:10064E000021F0900041E0900022F0900042E090F6
:10065E000023F0900043E0900024F0E490004AF074
:10066E0090004AE0C394055018E02420F582E4344B
:10067E0000F583E0FF900049E02FF0A3E004F08046
:10068E00DF900049E0FFC3E49FFF740194009000E7
:03069E0025EFF055
:0106A1002236
:10019A0090004512042A00001C1F9000407403F0CE
:1001AA00A374E8F0120D631207F312097D1200031B
:1001BA007F007E01120D5C900045E0FCA3E0FDA3E8
:1001CA00E0FEA3E0FFE4FAF9F8EF2401FFEA3EFEBD
:1001DA00E93DFDE83CFC90004512041E120D2BE49B
:1001EA007F207E1CFDFC900045E0F8A3E0F9A3E027
:1001FA00FAA3E0FBC312040D7023120C82120D75D0
:10020A00EF70FA120D99900042EFF0120D969000DD
:10021A0043EFF090004512042A00000000B28075F6
:10022A00A404E4F5A412063E7B017A0079207D0637
:03023A00120D4C56
:0E023D00751614D2E8AF161516EF70F9C2E868
:10024B009000447401F0900044E070030201C180FF
:04025B00F50201C1E6
:01025F00227C
:03004B000204E7C5
:1004E700C0E0C0F0C083C082C0D075D000C000C0DB
:0D04F70001C002C003C004C005C006C0075C
:10050400120C8E8F08E50830E61A120CDBEF700F20
:100514007B017A007900120D8D8E298F2A80EB9051
:100524000044E4F0E50830E505900044E4F0E50813
:0B05340030E408900044E4F0120D17C2
:10053F00D007D006D005D004D003D002D001D00010
:0B054F00D0D0D082D083D0F0D0E032BA
:0F0BD5000000000000EF1F70011E144E70F2228E
:1008DA00AD07AC067FFA7E00120BD57FFA7E0012B6
:1008EA000BD57FFA7E00120BD57FFA7E00120BD54C
:0A08FA00ED1D70011C144C70DB2290
:100B6500EF6009E5A3448054F7F5A32253A3772248
:100B1E00EF5401FFC4333354C0FFE5A354B74FF570
:020B2E00A32200
:100B7500EF5403FFC454F0FFE5A354C74FF5A32278
:0B0C4600E5AD30E3047F0280027F0177
:010C51002280
:0C0C5200EF5407FFE5A354F04FF5A32278
:060D6900E5AD5480FF22FD
:060D6F00E5AD5440FF2237
:0C0C5E00EF5407FFE5AD54F84FF5AD2250
:0400470043B310228D
:0B0CA600EF600443B3082253B3F722B1
:0E0C0200EF25E05406FFE5B354F94FF5B32299
:0B0CB100EF600443B3012253B3FE22A6
:100B3000E5B35406FD53B3F9EFF5B4EEF5B5ED4268
:010B4000B301
:010B41002291
:1009E500E5B35406FD53B3F9AFB5AB077A00EB7B1E
:0E09F50000FAAFB4EFFBE4ED42B3AE02AF0385
:010A030022D0
:100A0400E5B35408FD53B3F7AFABAB077A00EB7B08
:0E0A140000FAAFB6EFFBE4ED42B3AE02AF0363
:010A220022B1
:030D9300AFAC22E0
:100B8500EF25E025E0543CFFE5D354C34FF5D322D0
:0C0C6A00EF5403FFE5D354FC4FF5D322F8
:0F0BE400EFC4333354C0FFE5D2543F4FF5D22254
:100B9500EFC43354E05420FFE5D254DF4FF5D222A1
:100BA500EF25E025E0541CFFE5D254E34FF5D222B2
:100BB500EF25E025E0541CFFE5D254E34FF5D222A2
:0C0C7600EF5403FFE5D254FC4FF5D222EE
:0F0BF300EFC4333354C0FFE5D1543F4FF5D12247
:100BC500EFC43354E05420FFE5D154DF4FF5D12273
:0B0C82007F0143D380AE071FEE70FA25
:010C8D002244
:030D9600AFD522B4
:030D9900AFD422B2
:060D7500E5D35440FF220B
:100B5400E5D154187E007803CEC313CE13D8F9FF21
:010B6400226E
:0A0CC7008FE7E5E630E1FBAFE7221E
:070D5C00EFF5AFEEF5AF2249
:080D2B00AFAFAEAF8FAF8EAF8A
:010D3300229D
:020A23008F172B
:100A2500E4FF120A7C8F18E517B40105431801800D
:0B0A3500035318FEAD18E4FF120A5F27
:010A40002293
:020A41008F170D
:100A4300E4FF120A7C8F18E517B4010543180280EE
:0B0A5300035318FDAD18E4FF120A5F0A
:010A5E002275
:020823008F172D
:10082500E4FF120A7C8F18E51714600C146011247C
:100835000270135318F7800E4318085318FB8006EF
:0D084500431808431804AD18E4FF120A5FC1
:010852002283
:04055A008F398D3A0E
:10055E00E4FF120A7C8F3BE53924FB602214603BDA
:10056E0024027052E53A60047F0080027F01EF544E
:10057E0001FFC454F0FFE53B54EF4FF53B8037E5E8
:10058E003A60047F0080027F01EF5401FFC43354B0
:10059E00E0FFE53B54DF4FF53B801BE53A60047FFF
:1005AE000080027F01EF5401FFC4333354C0FFE5D6
:0D05BE003B54BF4FF53BAD3BE4FF120A5F1D
:0105CB00220D
:0B0C8E007D707F07120A5FEF5470FFBB
:010C99002238
:100A96007D707F07120A5FEF5470F5467F07120AD2
:080AA6007CEF540F4246AF46FD
:010AAE002225
:100B42007401A807088002C333D8FCFD7F07120A8C
:020B52005F2220
:080D3C00120D21EF5470FF229B
:0405CC008F178D18E0
:1005D0007F02120A7C8F197F01120A7C8F1AE5179D
:1005E00024FA5006240760388045AF177401A80725
:1005F000088002C333D8FC4219E5186011AF1774A4
:1006000001A807088002C333D8FC421A8021AF1723
:100610007401A807088002C333D8FCF4521A800F73
:1006200075193FE5186005751A3F8003E4F51AADAA
:0D063000197F02120A5FAD1A7F01120A5FE6
:01063D00229A
:0206A2008F17B0
:1006A4007F02120A7C8F187F01120A7C8F19E517CA
:1006B40024FA5006240760248027AF177401A80782
:1006C400088002C333D8FCF45218AF177401A8078A
:1006D400088002C333D8FCF452198005E4F518F5F8
:0F06E40019AD187F02120A5FAD197F01120A5F6C
:0106F30022E4
:100744008F178B188A19891AE51714600A24FB502D
:100754001A600424067026120CD18F1FE517242A70
:10076400FFAB18AA19A91A12031722E517240AFFC6
:0E077400AB18AA19A91A1203CCFD120A5F22B3
:1007BD008F358B368A378938E53514600824FB6010
:1007CD00042406700CAB36AA37A938AF3512004E8B
:1007DD0022E535240AFF120A7CAB36AA37A938EF79
:0607ED001203E57F01226A
:0209A100AB07A2
:1009A300EC540FFFC454F0FFE517540F4FF517EB4A
:1009B300540FFFE51754F04FF517AD177F04120AD4
:0109C3005FD4
:0109C4002210
:100AAF00E4F547EF24FE5403FFE54754FC4FF547A9
:070ABF00AD477F03120A5F3F
:010AC600220D
:0A0CD1007F03120A7CEF2402FF22C9
:080D4400EF2411FF120A5F22E7
:020260008F2BE2
:100262007F02120A7C8F2C7F01120A7C8F2DE52BD4
:1002720014602114603214604714605E14607124AB
:1002820005600302030AE52C5401F52EE52D540105
:10029200F52F8079AF2CEFC3135401F52EAF2DEF5C
:1002A200C3135401F52F8065AF2CEF1313543F5441
:1002B20001F52EAF2DEF1313543F5401F52F804D4E
:1002C200AF2CEF131313541F5401F52EAF2DEF1360
:1002D2001313541F5401F52F8033AF2CEFC4540F66
:1002E2005401F52EAF2DEFC4540F5401F52F801D8C
:1002F200AF2CEFC41354075401F52EAF2DEFC413E6
:1003020054075401F52F8005E4F52EF52FE52F252E
:04031200E0252EFFB5
:0103160022C4
:060D7B007F08120A7C2231
:100AC7007F08120A7CEF54F0FFE4C4F854F0C868BA
:070AD700EFC4540F48FF2299
:1006F400EF14601914601F14602514602B1460310A
:10070400240570367F11120A7C8F4880307F1212C4
:100714000A7C8F4880277F13120A7C8F48801E7FB3
:1007240014120A7C8F4880157F15120A7C8F48802A
:0F0734000C7F16120A7C8F488003E4F548AF480B
:010743002293
:100AF500E4F517EF547FFFE51754804FF517AD1751
:050B05007F05120A5FEC
:010B0A0022C8
:0209C5008F178A
:1009C7007F06120A7C8F18E5175403FF25E0FFE521
:0D09D7001854F94FF518AD187F06120A5F8D
:0109E40022F0
:020853008F17FD
:100855007F06120A7C8F18E517600C24FE70104382
:1008650018205318F7800E5318DF5318F7800653D6
:0C08750018DF431808AD187F06120A5F58
:010881002254
:0A0CDB007F17120A7CEF5401FF227C
:0C0C9A007F17120A7CEFC3135401FF22E5
:0D0C2C007F17120A7CEFC4540F5401FF2201
:0E0C10007F17120A7CEFC41354075401FF2211
:100ADE007F17120A7CEF5430FFE4C4F854F0C86854
:070AEE00EFC4540F48FF2282
:0A0CE5007F17120A7CEF5403FF2270
:060D81007F17120A7C221C
:0A0CEF007F08120A7CEF540FFF2269
:0A0CF9007F09120A7CEF5401FF226C
:010D9C002234
:0C0C3900EF543FF549AD497F1C120A5FE3
:010C4500228C
:0208AF008F3C7C
:1008B1007F1D120A7C8F3DE53C60047F0180027F31
:1008C10000EF5401FF25E025E0FFE53D54FB4FF526
:0808D1003DAD3D7F1D120A5FE1
:0108D90022FC
:02092E008F3EFA
:100930007F1D120A7C8F3FE53E60047F0180027FAD
:1009400000EF5401FF25E0FFE53F54FD4FF53FADBB
:060950003F7F1D120A5F4B
:01095600227E
:020957008F40CF
:100959007F1D120A7C8F41E54060047F0180027F80
:1009690000EF5401FFE54154FE4FF541AD417F1DB4
:03097900120A5F00
:01097C002258
:080D4C008D1F7FA01203172286
:080D54008D1F7FB0120317226E
:0B0CBC00EF44A8FF85341F120317222D
:060D87007F60120A7C22CD
:060D8D007F0812004E2257
:0E0C1E00120D21EF540EFFE4C313EF13FF225B
:0A0D0300C2E97FE3120CC7D2E92217
:100B0B00120D817E00EF54407806CEC313CE13D85E
:030B1B00F9FF22BD
:0A0D0D00C2E97FE2120CC7D2E9220E
:0A0D1700C2E97FE1120CC7D2E92205
:090D2100C2E97FFF120CC7D2E900
:010D2A0022A6
:020904008F4220
:100906007F06120A7C8F43E54260047F0180027FE6
:1009160000EF5401FFC454F0FFE54354EF4FF54395
:07092600AD437F06120A5FDA
:01092D0022A7
:020882008F44A1
:100884007F06120A7C8F45E54460047F0180027F65
:1008940000EF5401FFC43333335480FFE545547FE4
:0A08A4004FF545AD457F06120A5FCF
:0108AE002227
:100A7C00C2E98FE7E5E6540260FAAFE7E4F5E7E593
:090A8C00E6540260FAAFE7D2E97A
:010A9500223E
:100A5F00C2E9EF2420F5E7E5E6540260FAAFE78D2F
:0C0A6F00E7E5E6540260FA85E71BD2E9D7
:010A7B002258
:08004E008F098B0A8A0B890C53
:10005600751101850A0FE50914600C24FB6008245C
:10006600FE601724087036120CD18F0D8F0EC2E970
:10007600E509240AFF120CC78028120C1E8F09E519
:1000860009C394075010120D878F0D8F0EC2E97F9A
:1000960061120CC7800CE4F50EF50D8005E4F50E33
:0600A600F50DE50F702BC3
:1000AC00850C12E4F5E7E5117008A812A6100512EC
:1000BC008003E4F511E5E6540260FA85E710150DAE
:0800CC00E50D70DFA812A6107B
:0900D400020191E50F6401703D89
:1000DD00850B12850C13E4F5E7E51170138513827A
:1000ED00851283E510F00513E513700205128003E8
:1000FD00E4F511E5E6540260FA85E710150DE50DFE
:0B010D0070D4851382851283E510F08A
:080118008077E50F64FE702CF6
:10012000850C12E4F5E7E5117009A812E510F20557
:10013000128003E4F511E5E6540260FA85E7101534
:0A0140000DE50D70DEA812E510F2C7
:02014A008045EE
:10014C00850A12850B13850C14E4F5E7E51170187C
:10015C00AB12AA13A914E5101203E574012514F5CA
:10016C0014E43513F5138003E4F511E5E65402604D
:10017C00FA85E710150DE50D70CFAB12AA13A91473
:05018C00E5101203E57F
:08019100D2E9E509FEE50EFFCD
:010199002243
:060317008B1C8A1D891EEB
:09031D00AD1CC2E98FE7ED701C74
:10032600851E21A821E6FE0521E5E6540260FA8530
:0A033600E7208EE7151FE51F70E9B0
:07034000807EED64017029CD
:10034700851D21851E22852282852183E0FE0522C7
:10035700E52270020521E5E6540260FA85E7208E62
:07036700E7151FE51F70DF21
:07036E008050ED64FE701CDD
:10037500851E21A821E2FE0521E5E6540260FA85E5
:0A038500E7208EE7151FE51F70E961
:02038F00802FBD
:10039100851C21851D22851E23AB21AA22A923129A
:1003A10003CCFE74012523F523E43522F522E5E68D
:0F03B100540260FA85E7208EE7151FE51F70DA0A
:0B03C000E5E6540260FA85E720D2E970
:0103CB00220F
:0300000002045B9C
:0C045B00787FE4F6D8FD7581490204A208
:1003CC00BB010689828A83E0225002E722BBFE022F
:0903DC00E32289828A83E4932262
:1003E500BB010689828A83F0225002F722BBFE01F7
:0203F500F322F1
:1003F700EB9FF5F0EA9E42F0E99D42F0EC6480C87D
:0604070064809845F0221C
:10040D00EB9FF5F0EA9E42F0E99D42F0E89C45F045
:01041D0022BC
:0C041E00ECF0A3EDF0A3EEF0A3EFF02251
:10042A00A8828583F0D083D082120441120441123B
:10043A000441120441E473E493A3C583C5F0C58360
:10044A00C8C582C8F0A3C583C5F0C583C8C582C81C
:01045A00227F
:1004670002019AE493A3F8E493A34003F68001F210
:1004770008DFF48029E493A3F85407240CC8C33396
:10048700C4540F4420C8834004F456800146F6DF65
:10049700E4800B0102040810204080900D34E47EB4
:1004A700019360BCA3FF543F30E509541FFEE4935A
:1004B700A360010ECF54C025E060A840B8E493A321
:1004C700FAE493A3F8E493A3C8C582C8CAC583CA4C
:1004D700F0A3C8C582C8CAC583CADFE9DEE780BE04
:010D3B0000B7
:00000001FF
