:1011A60045019AE7E7E7E7E74101C0004101BF00D3
:0811B6004101E9004101E800DC
:0713A0007593F67594FF221E
:0E130200758901758C97758AD6D2A9D28C2276
:0613A7007F0212121C225D
:100D9A00D2EA7FFF120B2C7D007F001209137F011C
:100DAA001210C87F321211577F02120E1A7F0312D5
:100DBA0000267F02120E8B7B017A01799A7F00123C
:100DCA000D037D067F001212E47F011210E6D2B9EC
:050DDA00D2AFD2E822B7
:1002E2009001F4E4F09001F5E4F0751DFF9001C275
:1002F200E0FFEF641E60030204A99001F37401F0B1
:10030200751C00E51CC3943C40030203E5AF1C7559
:10031200F005EFA4246EF582E5F03400F583E0FFEA
:10032200EF70030203D8AF1C75F005EFA4246FF53C
:1003320082E5F03400F583E0FF9001C3E0FEEF6E4A
:100342007057AF1C75F005EFA42470F582E5F03408
:1003520000F583E0FF9001C4E0FEEF6E703BAF1C3E
:1003620075F005EFA4246EF582E5F03400F583E024
:10037200FFEFC3940A50079001F3E4F08065AF1CCD
:1003820075F005EFA4246EF582E5F03400F5837470
:1003920001F09001F3E4F0804AAF1C75F005EFA480
:1003A200246EF582E5F03400F583E0FF9001F4E07D
:1003B200FEEFD39E4028AF1C75F005EFA4246EF526
:1003C20082E5F03400F583E0FF9001F4EFF0900154
:1003D200F5E51CF08008E51DB4FF03851C1D051C16
:1003E2000203059001F3E0FFEF640160030204A938
:1003F200E51DC3943C5050751C00E51CC394045089
:1004020031AF1C74C32FF582E43401F583E0FFAEF3
:100412001CAD1D75F005EDA4246FF582E5F03400E6
:10042200F583E5822EF582E43583F583EFF0051C32
:1004320080C8AF1D75F005EFA4246EF582E5F03497
:1004420000F5837401F0229001F5E0FFEFC3943CC4
:100452005055751C00E51CC394045034AF1C74C382
:100462002FF582E43401F583E0FFAE1C9001F5E044
:10047200FD75F005EDA4246FF582E5F03400F583F7
:10048200E5822EF582E43583F583EFF0051C80C505
:100492009001F5E0FF75F005EFA4246EF582E5F01A
:0704A2003400F5837401F042
:0104A9002230
:10004E009001F4E4F09001C0E4F09001F3E4F0903C
:10005E0001F3E0FFEFC3943C506D9001F3E0FF75A8
:10006E00F005EFA4246EF582E5F03400F583E0FF91
:10007E00EFD3940140499001F3E0FF75F005EFA432
:10008E00246EF582E5F03400F583E004F09001F380
:10009E00E0FF75F005EFA4246EF582E5F03400F56F
:1000AE0083E0FFEFC3940A40169001F3E0FF75F072
:1000BE0005EFA4246EF582E5F03400F583E4F090AC
:1000CE0001F3E004F080889000007433F09000019A
:1000DE0074CCF09000027401F09000037401F09063
:1000EE0001F3E4F09001F3E0FFEFC3943C40030210
:1000FE0002009001F3E0FF75F005EFA4246EF58287
:10010E00E5F03400F583E0FFEF640160030201F7D0
:10011E009001F3E0FF75F005EFA4246FF582E5F092
:10012E003400F583E0FF9001F4E0FEEE25E025E0DB
:10013E002408F582E43400F583EFF09001F3E0FF3C
:10014E0075F005EFA42470F582E5F03400F583E038
:10015E00FF9001F4E0FEEE25E025E02409F582E4AF
:10016E003400F583EFF09001F3E0FF75F005EFA496
:10017E002471F582E5F03400F583E0FF9001F4E0A0
:10018E00FEEE25E025E0240AF582E43400F583EF47
:10019E00F09001F3E0FF75F005EFA42472F582E50F
:1001AE00F03400F583E0FF9001F4E0FEEE25E0254B
:1001BE00E0240BF582E43400F583EFF09001F3E0D8
:1001CE00FF75F005EFA4246EF582E5F03400F5839B
:1001DE007402F09001F4E004F09001C07401F0900C
:1001EE0001F4E0FFEF641460099001F3E004F00203
:1001FE0000F29001E8E004F09001E8E0FFEFB4FFB8
:10020E00069001E87401F09001F4E0FFEF25E0257F
:10021E00E0FFEF2406FF900004EFF09001E8E0FF0E
:10022E00900005EFF09000067420F09001F4E0FFCE
:10023E00900007EFF09001F5E4F09001F3E4F090F8
:10024E000004E0FF9001F3E0FEEEC39F501F90010B
:10025E00F3E0FF74022FF582E43400F583E0FF90A3
:10026E0001F5E02FF09001F3E004F080D29001F55B
:10027E00E0FF7E00C3E49FFF74019EFE7E009000AF
:10028E0004E0FE74022EF582E43400F583EFF09064
:10029E0001F3E4F0900004E0FF7E00EF2403FFEE94
:1002AE003400FE9001F3E0FD7C00C3ED9FEE648010
:1002BE00F8EC648098501C9001F3E0FF74002FF569
:1002CE0082E43400F583E0FF1210379001F3E0046E
:0302DE00F080C1EC
:0102E10022FA
:100BFC001213A01213A7120D9A7F07120B9C12123C
:100C0C00A5EFB402F9121302751B00E51BC3943C4B
:100C1C005017AF1B75F005EFA4246EF582E5F03488
:100C2C0000F583E4F0051B80E2E550B40108B280C6
:100C3C007550001202E29001E9E0FFEFB401EA9076
:090C4C0001E9E4F012004E80E021
:010C5500227C
:03004B0002074B5E
:10074B00C0E0C0F0C083C082C0D075D000C000C074
:0D075B0001C002C003C004C005C006C007F5
:100768001212D58F08E50820E60302081612135A5C
:10077800EF60030208167B017A01799F1212718ECD
:100788004E8F4F7E00AF4FEF64064E707B9001A0F6
:10079800E0FF7E0090019FE0FD7C00ED2FFFEC3E26
:1007A800FE9001A1E0FD7C00EF2DFFEE3CFE9001E4
:1007B800A2E0FD7C00EF2DFFEE3CFE9001A3E0FDE2
:1007C8007C00EF2DFFEE3CFE9001A4E0FD7C00EFE5
:1007D8002DFFEE3CFE7E00EF4E702D750900E509F9
:1007E800C394055020AF09749F2FF582E43401F5B6
:1007F80083E0FFAE0974C22EF582E43401F583EF7D
:10080800F0050980D975500112138C020775E508A7
:0E08180030E503121396E50830E40312139640
:10082600D007D006D005D004D003D002D001D00026
:0B083600D0D0D082D083D0F0D0E032D0
:060D53008B4B8A4C894D18
:100D59009001F7E4F09001F6E4F09001F6E0FFEF7E
:100D6900C394065022AB4BAA4CA94D9001F6E0FF63
:100D79008F82758300120AC7FF9001F7E02FF09068
:100D890001F6E004F080D39001F7E0FFEFF404FFEF
:010D99002237
:03000B00020E538F
:100E5300C0E0C083C082C0D075D000C007758C9736
:100E6300758AD69001BFE004F09001BFE0FFEFB4B4
:100E7300320B9001BFE4F09001E97401F0D007D088
:080E8300D0D082D083D0E03210
:101172008E548F550000000000E55515557002157C
:0A1182005414FFAE54EF4E70EB2240
:100EF4008E568F577FFA7E001211727FFA7E00128F
:100F040011727FFA7E001211727FFA7E0012117242
:100F1400E55715577002155614FFAE56EF4E70D4B0
:010F240022AA
:10000E008F6CE56C600BE5A34480FFEF54F7F5A30E
:05001E002253A377222C
:1011BF008F6DE56D5401FFEFC4333354C0FFE5A3CA
:0811CF0054B7FEEF4EF5A32218
:10121C008F1CE51C5403FFEFC454F0FFE5A354C727
:06122C00FEEF4EF5A322C7
:0F12A500E5AD30E305751C028003751C01AF1C1D
:0112B4002217
:101283008F6EE56E5407FFE5A354F0FEEE4FF5A312
:011293002238
:0613AD00E5AD5480FF22B3
:0613B300E5AD5440FF22ED
:101294008F6FE56F5407FFE5AD54F8FEEE4FF5ADE3
:0112A4002227
:0D132C008F1A851AE7E5E630E1FBAFE722F6
:03002300020CAF1D
:100CAF00C0E0C0D075D000C000C00730981CC298FB
:100CBF00E52BC394205013AF2F74732FF8A699E52B
:100CCF002F04FFEF541FF52F052B30991EC299E506
:100CDF002CD394014013AF2E74932FF8E6FF8F9906
:100CEF00E52E04FFEF541FF52E152CD007D000D0A2
:040CFF00D0D0E0323F
:020B9C008F1CAC
:100B9E00C2AC752E00753000752C00752D00752FAA
:100BAE0000752B00D29CC29FD29E43878043D88073
:100BBE00E51C120B060BE3040BEB050BDB060BD34C
:100BCE000700000BEB751D03751EF78016751D03D0
:100BDE00751EF3800E751D03751ECC8006751D03E4
:0D0BEE00751EE6851EAAE51DFF7E008FBA6C
:010BFB0022D7
:101037008F1CE52CD3942050F9C2ACE52C700585A4
:101047001C998011AF3074932FF8A61CE53004FF6C
:0A105700EF541FF530052CD2AC2237
:0313CB00AF2B2223
:0A134600E52C70037F01227F0022D6
:10108900E52B60FCC2ACAF2D74732FF8E6FF8F70AF
:0F109900E52D04FFEF541FF52D152BD2ACAF70D2
:0110A8002225
:101232008E588F59AF59EF54FFF5AFAE587F00EE7D
:06124200FF7E008FAF22C9
:0C13390085AF5B85AF5A855BAF855AAF6E
:011345002285
:0210C8008F1C7B
:1010CA007F0012100C8F1DE51CB40105431D018021
:0B10DA0003531DFEAD1D7F00120F55DB
:0110E50022E8
:0210E6008F1C5D
:1010E8007F0012100C8F1DE51CB40105431D028002
:0B10F80003531DFDAD1D7F00120F55BE
:0111030022C9
:020E8B008F1CBA
:100E8D007F0012100C8F1DE51C120B060EA6000E16
:100E9D00AB010EB30200000EB9531DF7800E431DBA
:100EAD0008531DFB8006431D08431D04AD1D7F0027
:030EBD00120F55BC
:010EC000220F
:040A2E008F518D5205
:100A32007F0012100C8F53E551120B060A4B040A69
:100A420069050A880600000AA6E55260047F008054
:100A5200027F01EF5401FFEFC454F0FFE55354EF5E
:100A6200FEEE4FF553803DE55260047F0080027F29
:100A720001EF5401FFEFC43354E0FFE55354DFFEAE
:100A8200EE4FF553801EE55260047F0080027F0125
:100A9200EF5401FFEFC4333354C0FFE55354BFFE9C
:0B0AA200EE4FF553AD537F00120F55CF
:010AAD002226
:0E12D5007D707F07120F558F0AE50A5470FFD7
:0112E30022E8
:10113C007D707F07120F55EF5470F5717F071210F9
:0A114C000CEF540FFFEF4271AF717A
:011156002276
:101248008F72AF727401A807088002C333D8FCFDFF
:061258007F07120F552272
:0800030012131EEF5470FF22DE
:040913008F1C8D1D8B
:100917007F0212100C8F1E7F0112100C8F1FE51C17
:10092700120B060946000946010946020946030952
:1009370046040946050993060984FF00000993AF99
:100947001C7401A807088002C333D8FCFFEF421EBE
:10095700E51D6013AF1C7401A807088002C333D8D4
:10096700FCFFEF421F8025AF1C7401A80708800217
:10097700C333D8FCFFEFF4FFEF521F800F751E3F04
:10098700E51D6005751F3F8003751F00AD1E7F02C3
:0A099700120F55AD1F7F01120F551E
:0109A1002233
:020B2C008F1C1C
:100B2E007F0212100C8F1D7F0112100C8F1EE51C00
:100B3E00120B060B5D000B5D010B5D020B5D030BD3
:100B4E005D040B5D050B8D060B87FF00000B8DAF53
:100B5E001C7401A807088002C333D8FCFFEFF4FF12
:100B6E00EF521DAF1C7401A807088002C333D8FCD6
:100B7E00FFEFF4FFEF521E8006751D00751E00ADCF
:0D0B8E001D7F02120F55AD1E7F01120F5585
:010B9B002237
:100D03008F1C8B1D8A1E891FE51C120B060D2C00E0
:100D13000D2C010D40020D40030D40040D40050D47
:100D23002C060D52FF00000D521213508F24E51CA8
:100D3300242AFFAB1DAA1EA91F12064622E51C2466
:100D43000AFFAB1DAA1EA91F120AAEFD120F5522E0
:100DDF008F3B8B3C8A3D893EE53B120B060DF9009C
:100DEF000DF9010DF90600000E05AB3CAA3DA93E19
:100DFF00AF3B1204AA22E53B240AFF12100CAB3CB6
:0B0E0F00AA3DA93EEF120AF47F012269
:060EC1008F3F8C408D41C3
:100EC700E540FF7E00EF540FFFEFC454F0FFE5420B
:100ED700540FFEEE4FF542E53F540FFFE54254F045
:0C0EE700FEEE4FF542AD427F04120F55A5
:010EF30022DC
:0210A9008F5C5A
:1010AB00755D00E55C24FEFFEF5403FFE55D54FC2A
:0C10BB00FEEE4FF55DAD5D7F03120F559A
:0110C7002206
:0A1350007F0312100CEF2402FF22AD
:0F12E4008F1C8D1DE51C2411FFAD1D120F55220F
:020841008F31F5
:100843007F0212100C8F327F0112100C8F33E531AF
:10085300120B06086C00087B0108930208AF03081B
:10086300CD0408E70500000903E5325401F534E53A
:10087300335401F535020909AF32EFC313FFEF54C7
:1008830001F534AF33EFC313FFEF5401F535807631
:10089300AF32EF1313543FFFEF5401F534AF33EF8F
:1008A3001313543FFFEF5401F535805AAF32EF1362
:1008B3001313541FFFEF5401F534AF33EF13131326
:1008C300541FFFEF5401F535803CAF32EFC4540F92
:1008D300FFEF5401F534AF33EFC4540FFFEF54016E
:1008E300F5358022AF32EFC4135407FFEF5401F5FF
:1008F30034AF33EFC4135407FFEF5401F5358006CB
:0F090300753400753500E53525E0FFEF2534FF2D
:0109120022C2
:0613B9007F0812100C2257
:101104007F0812100C7E007E00EF54F0FFEEC4F84E
:0C11140054F0C868FEEFC4540F48FF22DE
:020C56008F5EAF
:100C5800E55E120B060C73000C7C010C85020C8EF1
:100C6800030C97040CA00500000CA97F1112100CAE
:100C78008F5F80307F1212100C8F5F80277F1312D6
:100C8800100C8F5F801E7F1412100C8F5F80157FF1
:100C98001512100C8F5F800C7F1612100C8F5F805E
:060CA80003755F00AF5F61
:010CAE002223
:021157008F1CEB
:10115900751D00E51C547FFFE51D5480FEEE4FF51B
:081169001DAD1D7F05120F559D
:01117100225B
:020026008F1C2D
:100028007F0612100C8F1DE51C5403FFEF25E0FF1F
:10003800E51D54F9FEEE4FF51DAD1D7F06120F5557
:010048002295
:020E1A008F1C2B
:100E1C007F0612100C8F1DE51C120B060E3D000EEA
:100E2C0045010E350200000E45431D20531DF78071
:100E3C000E531DDF531DF78006531DDF431D08ADF8
:060E4C001D7F06120F5588
:010E5200227D
:0A135A007F1712100CEF5401FF2260
:0E1310007F1712100CEFC313FFEF5401FF22E2
:0F12F3007F1712100CEFC4540FFFEF5401FF22AE
:1012B5007F1712100CEFC4135407FFEF5401FF22E0
:101120007F1712100C7E007E00EF5430FFEEC4F8E3
:0C11300054F0C868FEEFC4540F48FF22C2
:0A1364007F1712100CEF5403FF2254
:0613BF007F1712100C2242
:0A136E007F0812100CEF540FFF224D
:0A1378007F0912100CEF5401FF2250
:010049002294
:0212C5008F6038
:0D12C700E560543FF561AD617F1C120F55CD
:0112D40022F7
:020F85008F6279
:100F87007F1D12100C8F63E56260047F0180027F72
:100F970000EF5401FFEF25E025E0FFE56354FBFE7A
:0B0FA700EE4FF563AD637F1D120F5588
:010FB200221C
:020FE0008F641C
:100FE2007F1D12100C8F65E56460047F0180027F13
:100FF20000EF5401FFEF25E0FFE56554FDFEEE4FE3
:09100200F565AD657F1D120F5567
:01100B0022C2
:021061008F6698
:101063007F1D12100C8F67E56660047F0180027F8D
:1010730000EF5401FFE56754FEFEEE4FF567AD67E1
:051083007F1D120F5556
:011088002245
:1011D7008B438A4489458D46AB43AA44A945854636
:0711E700247FA0120646223E
:1011EE008B478A4889498D4AAB47AA48A949854AFF
:0711FE00247FB01206462217
:10118C008F368B378A388939E53644A8FFAB37AAB6
:0A119C0038A939853A2412064622CC
:0613C5007F6012100C22F3
:101271008B0A8A0B890CAB0AAA0BA90C7F081204F2
:02128100AA229F
:10125E0012131E7E007E00EF540EFFEEC313FEEF40
:03126E0013FF2249
:0A138200C2E97FE312132CD2E92226
:101205001213BF7E007E00EF5440FFEF7806CEC379
:0712150013CE13D8F9FF22EC
:0A138C00C2E97FE212132CD2E9221D
:0A139600C2E97FE112132CD2E92214
:0D131E00C2E97FFF12132C8F19D2E9AF191D
:01132B00229F
:020FB3008F6845
:100FB5007F0612100C8F69E56860047F0180027F4F
:100FC50000EF5401FFEFC454F0FFE56954EFFEEE66
:0A0FD5004FF569AD697F06120F5554
:010FDF0022EF
:020F25008F6AD1
:100F27007F0612100C8F6BE56A60047F0180027FD9
:100F370000EF5401FFEFC43333335480FFE56B54A4
:0D0F47007FFEEE4FF56BAD6B7F06120F5570
:010F5400227A
:02100C008F2033
:10100E00C2E98520E7E5E65402FF7E00EF4E60F56B
:10101E0085E72175E700E5E65402FF7E00EF4E609E
:08102E00F585E721D2E9AF21AD
:011036002297
:040F55008F208D213B
:100F5900C2E9E5202420F5E7E5E65402FF7E00EF2B
:100F69004E60F585E7228521E7E5E65402FF7E001C
:0B0F7900EF4E60F585E723D2E9AF22C0
:010F8400224A
:0804AA008F0D8B0E8A0F8910E3
:1004B200751501850E13E50D120B0604CD0004CD52
:1004C2000104CD0604E008000005041213508F1148
:1004D2008F12C2E9E50D240AFF12132C802A121290
:1004E2005E8F0DE50DC3940750101213C58F118F47
:1004F20012C2E97F6112132C800E75120075110071
:0C0502008006751200751100E513703CB6
:10050E00AB0EAA0FA910AF018F1675E700E5157097
:10051E000AAF16A807A61405168003751500E5E6A2
:10052E005402FF7E00EF4E60F585E7141511AF11F2
:09053E00EF70D7AF16A807A61450
:09054700020631E5136401705055
:10055000AB0EAA0FA910AE02AF018E168F1775E76A
:1005600000E5157015AE16AF178F828E83E514F077
:100570000517E517700205168003751500E5E654AA
:1005800002FF7E00EF4E60F585E7141511AF11EF05
:0D05900070CCAE16AF178F828E83E514F08D
:09059D00020631E51364FE703D15
:1005A600AB0EAA0FA910AF018F1675E700E51570FF
:1005B6000BAF16A807E514F205168003751500E5BE
:1005C600E65402FF7E00EF4E60F585E7141511AF85
:0B05D60011EF70D6AF16A807E514F275
:0205E100804E4A
:1005E300AB0EAA0FA9108B168A17891875E700E5B9
:1005F300157018AB16AA17A918E514120AF474019A
:100603002518F518E43517F5178003751500E5E689
:100613005402FF7E00EF4E60F585E7141511AF110C
:0E062300EF70C9AB16AA17A918E514120AF455
:10063100D2E9AF0D7E00EF7F00FEAD127C00EE4CE3
:04064100FEEF4DFF7C
:010645002292
:080646008F208B218A228923F9
:0C064E00852125C2E98520E7E525702FF5
:10065A00AB21AA22A923AF018F28AF28A807E6FF5A
:10066A008F260528E5E65402FF7E00EF4E60F585E9
:0C067A00E7278526E71524AF24EF70DE8B
:0906860002073AE5256401703C0D
:10068F00AB21AA22A923AE02AF018E288F29AE2853
:10069F00AF298F828E83E0FF8F260529E52970020F
:1006AF000528E5E65402FF7E00EF4E60F585E7274B
:0A06BF008526E71524AF24EF70D460
:0806C900806FE52564FE702E30
:1006D100AB21AA22A923AF018F28AF28A807E2FFE7
:1006E1008F260528E5E65402FF7E00EF4E60F58572
:0C06F100E7278526E71524AF24EF70DE14
:0206FD00803B40
:1006FF00AB21AA22A9238B288A29892AAB28AA29C8
:10070F00A92A120AAEFF8F267401252AF52AE4358D
:10071F0029F529E5E65402FF7E00EF4E60F585E7E7
:0B072F00278526E71524AF24EF70D1CA
:10073A00E5E65402FF7E00EF4E60F585E727D2E931
:01074A00228C
:030000000209A250
:0C09A200787FE4F6D8FD7581B20209E907
:100AAE00BB010689828A83E0225002E722BBFE0246
:090ABE00E32289828A83E4932279
:100AC700BB010CE58229F582E5833AF583E02250E4
:100AD70006E92582F8E622BBFE06E92582F8E2222E
:0D0AE700E58229F582E5833AF583E4932248
:100AF400BB010689828A83F0225002F722BBFE01E1
:020B0400F322DA
:100B0600D083D082F8E4937012740193700DA3A37E
:100B160093F8740193F5828883E473740293686092
:060B2600EFA3A3A380DF92
:1009AE00020BFCE493A3F8E493A34003F68001F258
:1009BE0008DFF48029E493A3F85407240CC8C3334A
:1009CE00C4540F4420C8834004F456800146F6DF19
:1009DE00E4800B01020408102040809011A6E47EF2
:1009EE00019360BCA3FF543F30E509541FFEE4930E
:1009FE00A360010ECF54C025E060A840B8E493A3D5
:100A0E00FAE493A3F8E493A3C8C582C8CAC583CAFF
:100A1E00F0A3C8C582C8CAC583CADFE9DEE780BEB7
:0111BE000030
:00000001FF
